{
  "_format": "hh-sol-artifact-1",
  "contractName": "NFTCollection",
  "sourceName": "contracts/NFTCollection.sol",
  "abi": [
    {
      "inputs": [
        {
          "internalType": "string",
          "name": "_name",
          "type": "string"
        },
        {
          "internalType": "string",
          "name": "_symbol",
          "type": "string"
        },
        {
          "internalType": "string",
          "name": "_initBaseURI",
          "type": "string"
        }
      ],
      "stateMutability": "nonpayable",
      "type": "constructor"
    },
    {
      "anonymous": false,
      "inputs": [
        {
          "indexed": true,
          "internalType": "address",
          "name": "owner",
          "type": "address"
        },
        {
          "indexed": true,
          "internalType": "address",
          "name": "approved",
          "type": "address"
        },
        {
          "indexed": true,
          "internalType": "uint256",
          "name": "tokenId",
          "type": "uint256"
        }
      ],
      "name": "Approval",
      "type": "event"
    },
    {
      "anonymous": false,
      "inputs": [
        {
          "indexed": true,
          "internalType": "address",
          "name": "owner",
          "type": "address"
        },
        {
          "indexed": true,
          "internalType": "address",
          "name": "operator",
          "type": "address"
        },
        {
          "indexed": false,
          "internalType": "bool",
          "name": "approved",
          "type": "bool"
        }
      ],
      "name": "ApprovalForAll",
      "type": "event"
    },
    {
      "anonymous": false,
      "inputs": [
        {
          "indexed": false,
          "internalType": "address",
          "name": "sender",
          "type": "address"
        },
        {
          "indexed": false,
          "internalType": "uint256",
          "name": "tokenId",
          "type": "uint256"
        }
      ],
      "name": "NewNFTMinted",
      "type": "event"
    },
    {
      "anonymous": false,
      "inputs": [
        {
          "indexed": true,
          "internalType": "address",
          "name": "previousOwner",
          "type": "address"
        },
        {
          "indexed": true,
          "internalType": "address",
          "name": "newOwner",
          "type": "address"
        }
      ],
      "name": "OwnershipTransferred",
      "type": "event"
    },
    {
      "anonymous": false,
      "inputs": [
        {
          "indexed": true,
          "internalType": "address",
          "name": "from",
          "type": "address"
        },
        {
          "indexed": true,
          "internalType": "address",
          "name": "to",
          "type": "address"
        },
        {
          "indexed": true,
          "internalType": "uint256",
          "name": "tokenId",
          "type": "uint256"
        }
      ],
      "name": "Transfer",
      "type": "event"
    },
    {
      "inputs": [
        {
          "internalType": "address",
          "name": "to",
          "type": "address"
        },
        {
          "internalType": "uint256",
          "name": "tokenId",
          "type": "uint256"
        }
      ],
      "name": "approve",
      "outputs": [],
      "stateMutability": "nonpayable",
      "type": "function"
    },
    {
      "inputs": [
        {
          "internalType": "address",
          "name": "owner",
          "type": "address"
        }
      ],
      "name": "balanceOf",
      "outputs": [
        {
          "internalType": "uint256",
          "name": "",
          "type": "uint256"
        }
      ],
      "stateMutability": "view",
      "type": "function"
    },
    {
      "inputs": [],
      "name": "baseExtension",
      "outputs": [
        {
          "internalType": "string",
          "name": "",
          "type": "string"
        }
      ],
      "stateMutability": "view",
      "type": "function"
    },
    {
      "inputs": [],
      "name": "cost",
      "outputs": [
        {
          "internalType": "uint256",
          "name": "",
          "type": "uint256"
        }
      ],
      "stateMutability": "view",
      "type": "function"
    },
    {
      "inputs": [
        {
          "internalType": "uint256",
          "name": "tokenId",
          "type": "uint256"
        }
      ],
      "name": "getApproved",
      "outputs": [
        {
          "internalType": "address",
          "name": "",
          "type": "address"
        }
      ],
      "stateMutability": "view",
      "type": "function"
    },
    {
      "inputs": [
        {
          "internalType": "address",
          "name": "owner",
          "type": "address"
        },
        {
          "internalType": "address",
          "name": "operator",
          "type": "address"
        }
      ],
      "name": "isApprovedForAll",
      "outputs": [
        {
          "internalType": "bool",
          "name": "",
          "type": "bool"
        }
      ],
      "stateMutability": "view",
      "type": "function"
    },
    {
      "inputs": [],
      "name": "maxMintAmount",
      "outputs": [
        {
          "internalType": "uint256",
          "name": "",
          "type": "uint256"
        }
      ],
      "stateMutability": "view",
      "type": "function"
    },
    {
      "inputs": [],
      "name": "maxSupply",
      "outputs": [
        {
          "internalType": "uint256",
          "name": "",
          "type": "uint256"
        }
      ],
      "stateMutability": "view",
      "type": "function"
    },
    {
      "inputs": [
        {
          "internalType": "uint256",
          "name": "_mintAmount",
          "type": "uint256"
        }
      ],
      "name": "mint",
      "outputs": [],
      "stateMutability": "payable",
      "type": "function"
    },
    {
      "inputs": [],
      "name": "name",
      "outputs": [
        {
          "internalType": "string",
          "name": "",
          "type": "string"
        }
      ],
      "stateMutability": "view",
      "type": "function"
    },
    {
      "inputs": [],
      "name": "owner",
      "outputs": [
        {
          "internalType": "address",
          "name": "",
          "type": "address"
        }
      ],
      "stateMutability": "view",
      "type": "function"
    },
    {
      "inputs": [
        {
          "internalType": "uint256",
          "name": "tokenId",
          "type": "uint256"
        }
      ],
      "name": "ownerOf",
      "outputs": [
        {
          "internalType": "address",
          "name": "",
          "type": "address"
        }
      ],
      "stateMutability": "view",
      "type": "function"
    },
    {
      "inputs": [
        {
          "internalType": "bool",
          "name": "_state",
          "type": "bool"
        }
      ],
      "name": "pause",
      "outputs": [],
      "stateMutability": "nonpayable",
      "type": "function"
    },
    {
      "inputs": [],
      "name": "paused",
      "outputs": [
        {
          "internalType": "bool",
          "name": "",
          "type": "bool"
        }
      ],
      "stateMutability": "view",
      "type": "function"
    },
    {
      "inputs": [],
      "name": "renounceOwnership",
      "outputs": [],
      "stateMutability": "nonpayable",
      "type": "function"
    },
    {
      "inputs": [
        {
          "internalType": "address",
          "name": "from",
          "type": "address"
        },
        {
          "internalType": "address",
          "name": "to",
          "type": "address"
        },
        {
          "internalType": "uint256",
          "name": "tokenId",
          "type": "uint256"
        }
      ],
      "name": "safeTransferFrom",
      "outputs": [],
      "stateMutability": "nonpayable",
      "type": "function"
    },
    {
      "inputs": [
        {
          "internalType": "address",
          "name": "from",
          "type": "address"
        },
        {
          "internalType": "address",
          "name": "to",
          "type": "address"
        },
        {
          "internalType": "uint256",
          "name": "tokenId",
          "type": "uint256"
        },
        {
          "internalType": "bytes",
          "name": "_data",
          "type": "bytes"
        }
      ],
      "name": "safeTransferFrom",
      "outputs": [],
      "stateMutability": "nonpayable",
      "type": "function"
    },
    {
      "inputs": [
        {
          "internalType": "address",
          "name": "operator",
          "type": "address"
        },
        {
          "internalType": "bool",
          "name": "approved",
          "type": "bool"
        }
      ],
      "name": "setApprovalForAll",
      "outputs": [],
      "stateMutability": "nonpayable",
      "type": "function"
    },
    {
      "inputs": [
        {
          "internalType": "string",
          "name": "_newBaseExtension",
          "type": "string"
        }
      ],
      "name": "setBaseExtension",
      "outputs": [],
      "stateMutability": "nonpayable",
      "type": "function"
    },
    {
      "inputs": [
        {
          "internalType": "string",
          "name": "_newBaseURI",
          "type": "string"
        }
      ],
      "name": "setBaseURI",
      "outputs": [],
      "stateMutability": "nonpayable",
      "type": "function"
    },
    {
      "inputs": [
        {
          "internalType": "uint256",
          "name": "_newCost",
          "type": "uint256"
        }
      ],
      "name": "setCost",
      "outputs": [],
      "stateMutability": "nonpayable",
      "type": "function"
    },
    {
      "inputs": [
        {
          "internalType": "uint256",
          "name": "_newmaxMintAmount",
          "type": "uint256"
        }
      ],
      "name": "setMaxMintAmount",
      "outputs": [],
      "stateMutability": "nonpayable",
      "type": "function"
    },
    {
      "inputs": [
        {
          "internalType": "bytes4",
          "name": "interfaceId",
          "type": "bytes4"
        }
      ],
      "name": "supportsInterface",
      "outputs": [
        {
          "internalType": "bool",
          "name": "",
          "type": "bool"
        }
      ],
      "stateMutability": "view",
      "type": "function"
    },
    {
      "inputs": [],
      "name": "symbol",
      "outputs": [
        {
          "internalType": "string",
          "name": "",
          "type": "string"
        }
      ],
      "stateMutability": "view",
      "type": "function"
    },
    {
      "inputs": [
        {
          "internalType": "uint256",
          "name": "index",
          "type": "uint256"
        }
      ],
      "name": "tokenByIndex",
      "outputs": [
        {
          "internalType": "uint256",
          "name": "",
          "type": "uint256"
        }
      ],
      "stateMutability": "view",
      "type": "function"
    },
    {
      "inputs": [
        {
          "internalType": "address",
          "name": "owner",
          "type": "address"
        },
        {
          "internalType": "uint256",
          "name": "index",
          "type": "uint256"
        }
      ],
      "name": "tokenOfOwnerByIndex",
      "outputs": [
        {
          "internalType": "uint256",
          "name": "",
          "type": "uint256"
        }
      ],
      "stateMutability": "view",
      "type": "function"
    },
    {
      "inputs": [
        {
          "internalType": "uint256",
          "name": "tokenId",
          "type": "uint256"
        }
      ],
      "name": "tokenURI",
      "outputs": [
        {
          "internalType": "string",
          "name": "",
          "type": "string"
        }
      ],
      "stateMutability": "view",
      "type": "function"
    },
    {
      "inputs": [],
      "name": "totalSupply",
      "outputs": [
        {
          "internalType": "uint256",
          "name": "",
          "type": "uint256"
        }
      ],
      "stateMutability": "view",
      "type": "function"
    },
    {
      "inputs": [
        {
          "internalType": "address",
          "name": "from",
          "type": "address"
        },
        {
          "internalType": "address",
          "name": "to",
          "type": "address"
        },
        {
          "internalType": "uint256",
          "name": "tokenId",
          "type": "uint256"
        }
      ],
      "name": "transferFrom",
      "outputs": [],
      "stateMutability": "nonpayable",
      "type": "function"
    },
    {
      "inputs": [
        {
          "internalType": "address",
          "name": "newOwner",
          "type": "address"
        }
      ],
      "name": "transferOwnership",
      "outputs": [],
      "stateMutability": "nonpayable",
      "type": "function"
    },
    {
      "inputs": [
        {
          "internalType": "address",
          "name": "_owner",
          "type": "address"
        }
      ],
      "name": "walletOfOwner",
      "outputs": [
        {
          "internalType": "uint256[]",
          "name": "",
          "type": "uint256[]"
        }
      ],
      "stateMutability": "view",
      "type": "function"
    },
    {
      "inputs": [],
      "name": "withdraw",
      "outputs": [],
      "stateMutability": "payable",
      "type": "function"
    }
  ],
  "bytecode": "0x60806040526040518060400160405280600581526020017f2e6a736f6e000000000000000000000000000000000000000000000000000000815250600c908051906020019062000051929190620002c8565b50662386f26fc10000600d556064600e556001600f556000601060006101000a81548160ff0219169083151502179055503480156200008f57600080fd5b506040516200482d3803806200482d8339818101604052810190620000b59190620003ea565b82828160009080519060200190620000cf929190620002c8565b508060019080519060200190620000e8929190620002c8565b5050506200010b620000ff6200012560201b60201c565b6200012d60201b60201c565b6200011c81620001f360201b60201c565b5050506200067e565b600033905090565b6000600a60009054906101000a900473ffffffffffffffffffffffffffffffffffffffff16905081600a60006101000a81548173ffffffffffffffffffffffffffffffffffffffff021916908373ffffffffffffffffffffffffffffffffffffffff1602179055508173ffffffffffffffffffffffffffffffffffffffff168173ffffffffffffffffffffffffffffffffffffffff167f8be0079c531659141344cd1fd0a4f28419497f9722a3daafe3b4186f6b6457e060405160405180910390a35050565b620002036200012560201b60201c565b73ffffffffffffffffffffffffffffffffffffffff16620002296200029e60201b60201c565b73ffffffffffffffffffffffffffffffffffffffff161462000282576040517f08c379a00000000000000000000000000000000000000000000000000000000081526004016200027990620004b2565b60405180910390fd5b80600b90805190602001906200029a929190620002c8565b5050565b6000600a60009054906101000a900473ffffffffffffffffffffffffffffffffffffffff16905090565b828054620002d6906200057a565b90600052602060002090601f016020900481019282620002fa576000855562000346565b82601f106200031557805160ff191683800117855562000346565b8280016001018555821562000346579182015b828111156200034557825182559160200191906001019062000328565b5b50905062000355919062000359565b5090565b5b80821115620003745760008160009055506001016200035a565b5090565b60006200038f6200038984620004fd565b620004d4565b905082815260208101848484011115620003a857600080fd5b620003b584828562000544565b509392505050565b600082601f830112620003cf57600080fd5b8151620003e184826020860162000378565b91505092915050565b6000806000606084860312156200040057600080fd5b600084015167ffffffffffffffff8111156200041b57600080fd5b6200042986828701620003bd565b935050602084015167ffffffffffffffff8111156200044757600080fd5b6200045586828701620003bd565b925050604084015167ffffffffffffffff8111156200047357600080fd5b6200048186828701620003bd565b9150509250925092565b60006200049a60208362000533565b9150620004a78262000655565b602082019050919050565b60006020820190508181036000830152620004cd816200048b565b9050919050565b6000620004e0620004f3565b9050620004ee8282620005b0565b919050565b6000604051905090565b600067ffffffffffffffff8211156200051b576200051a62000615565b5b620005268262000644565b9050602081019050919050565b600082825260208201905092915050565b60005b838110156200056457808201518184015260208101905062000547565b8381111562000574576000848401525b50505050565b600060028204905060018216806200059357607f821691505b60208210811415620005aa57620005a9620005e6565b5b50919050565b620005bb8262000644565b810181811067ffffffffffffffff82111715620005dd57620005dc62000615565b5b80604052505050565b7f4e487b7100000000000000000000000000000000000000000000000000000000600052602260045260246000fd5b7f4e487b7100000000000000000000000000000000000000000000000000000000600052604160045260246000fd5b6000601f19601f8301169050919050565b7f4f776e61626c653a2063616c6c6572206973206e6f7420746865206f776e6572600082015250565b61419f806200068e6000396000f3fe6080604052600436106101e35760003560e01c806355f804b311610102578063a22cb46511610095578063d5abeb0111610064578063d5abeb01146106d6578063da3ef23f14610701578063e985e9c51461072a578063f2fde38b14610767576101e3565b8063a22cb4651461061c578063b88d4fde14610645578063c66828621461066e578063c87b56dd14610699576101e3565b8063715018a6116100d1578063715018a6146105935780638da5cb5b146105aa57806395d89b41146105d5578063a0712d6814610600576101e3565b806355f804b3146104c55780635c975abb146104ee5780636352211e1461051957806370a0823114610556576101e3565b8063239c70ae1161017a57806342842e0e1161014957806342842e0e146103f9578063438b63001461042257806344a0d68a1461045f5780634f6ccce714610488576101e3565b8063239c70ae1461035e57806323b872dd146103895780632f745c59146103b25780633ccfd60b146103ef576101e3565b8063088a4ed0116101b6578063088a4ed0146102b6578063095ea7b3146102df57806313faede61461030857806318160ddd14610333576101e3565b806301ffc9a7146101e857806302329a291461022557806306fdde031461024e578063081812fc14610279575b600080fd5b3480156101f457600080fd5b5061020f600480360381019061020a9190612ec3565b610790565b60405161021c91906134e4565b60405180910390f35b34801561023157600080fd5b5061024c60048036038101906102479190612e9a565b61080a565b005b34801561025a57600080fd5b506102636108a3565b60405161027091906134ff565b60405180910390f35b34801561028557600080fd5b506102a0600480360381019061029b9190612f56565b610935565b6040516102ad9190613432565b60405180910390f35b3480156102c257600080fd5b506102dd60048036038101906102d89190612f56565b6109ba565b005b3480156102eb57600080fd5b5061030660048036038101906103019190612e5e565b610a40565b005b34801561031457600080fd5b5061031d610b58565b60405161032a9190613761565b60405180910390f35b34801561033f57600080fd5b50610348610b5e565b6040516103559190613761565b60405180910390f35b34801561036a57600080fd5b50610373610b6b565b6040516103809190613761565b60405180910390f35b34801561039557600080fd5b506103b060048036038101906103ab9190612d58565b610b71565b005b3480156103be57600080fd5b506103d960048036038101906103d49190612e5e565b610bd1565b6040516103e69190613761565b60405180910390f35b6103f7610c76565b005b34801561040557600080fd5b50610420600480360381019061041b9190612d58565b610d72565b005b34801561042e57600080fd5b5061044960048036038101906104449190612cf3565b610d92565b60405161045691906134c2565b60405180910390f35b34801561046b57600080fd5b5061048660048036038101906104819190612f56565b610e8c565b005b34801561049457600080fd5b506104af60048036038101906104aa9190612f56565b610f12565b6040516104bc9190613761565b60405180910390f35b3480156104d157600080fd5b506104ec60048036038101906104e79190612f15565b610fa9565b005b3480156104fa57600080fd5b5061050361103f565b60405161051091906134e4565b60405180910390f35b34801561052557600080fd5b50610540600480360381019061053b9190612f56565b611052565b60405161054d9190613432565b60405180910390f35b34801561056257600080fd5b5061057d60048036038101906105789190612cf3565b611104565b60405161058a9190613761565b60405180910390f35b34801561059f57600080fd5b506105a86111bc565b005b3480156105b657600080fd5b506105bf611244565b6040516105cc9190613432565b60405180910390f35b3480156105e157600080fd5b506105ea61126e565b6040516105f791906134ff565b60405180910390f35b61061a60048036038101906106159190612f56565b611300565b005b34801561062857600080fd5b50610643600480360381019061063e9190612e22565b611410565b005b34801561065157600080fd5b5061066c60048036038101906106679190612da7565b611426565b005b34801561067a57600080fd5b50610683611488565b60405161069091906134ff565b60405180910390f35b3480156106a557600080fd5b506106c060048036038101906106bb9190612f56565b611516565b6040516106cd91906134ff565b60405180910390f35b3480156106e257600080fd5b506106eb6115c0565b6040516106f89190613761565b60405180910390f35b34801561070d57600080fd5b5061072860048036038101906107239190612f15565b6115c6565b005b34801561073657600080fd5b50610751600480360381019061074c9190612d1c565b61165c565b60405161075e91906134e4565b60405180910390f35b34801561077357600080fd5b5061078e60048036038101906107899190612cf3565b6116f0565b005b60007f780e9d63000000000000000000000000000000000000000000000000000000007bffffffffffffffffffffffffffffffffffffffffffffffffffffffff1916827bffffffffffffffffffffffffffffffffffffffffffffffffffffffff191614806108035750610802826117e8565b5b9050919050565b6108126118ca565b73ffffffffffffffffffffffffffffffffffffffff16610830611244565b73ffffffffffffffffffffffffffffffffffffffff1614610886576040517f08c379a000000000000000000000000000000000000000000000000000000000815260040161087d906136c1565b60405180910390fd5b80601060006101000a81548160ff02191690831515021790555050565b6060600080546108b290613a6a565b80601f01602080910402602001604051908101604052809291908181526020018280546108de90613a6a565b801561092b5780601f106109005761010080835404028352916020019161092b565b820191906000526020600020905b81548152906001019060200180831161090e57829003601f168201915b5050505050905090565b6000610940826118d2565b61097f576040517f08c379a0000000000000000000000000000000000000000000000000000000008152600401610976906136a1565b60405180910390fd5b6004600083815260200190815260200160002060009054906101000a900473ffffffffffffffffffffffffffffffffffffffff169050919050565b6109c26118ca565b73ffffffffffffffffffffffffffffffffffffffff166109e0611244565b73ffffffffffffffffffffffffffffffffffffffff1614610a36576040517f08c379a0000000000000000000000000000000000000000000000000000000008152600401610a2d906136c1565b60405180910390fd5b80600f8190555050565b6000610a4b82611052565b90508073ffffffffffffffffffffffffffffffffffffffff168373ffffffffffffffffffffffffffffffffffffffff161415610abc576040517f08c379a0000000000000000000000000000000000000000000000000000000008152600401610ab390613701565b60405180910390fd5b8073ffffffffffffffffffffffffffffffffffffffff16610adb6118ca565b73ffffffffffffffffffffffffffffffffffffffff161480610b0a5750610b0981610b046118ca565b61165c565b5b610b49576040517f08c379a0000000000000000000000000000000000000000000000000000000008152600401610b4090613621565b60405180910390fd5b610b53838361193e565b505050565b600d5481565b6000600880549050905090565b600f5481565b610b82610b7c6118ca565b826119f7565b610bc1576040517f08c379a0000000000000000000000000000000000000000000000000000000008152600401610bb890613721565b60405180910390fd5b610bcc838383611ad5565b505050565b6000610bdc83611104565b8210610c1d576040517f08c379a0000000000000000000000000000000000000000000000000000000008152600401610c1490613521565b60405180910390fd5b600660008473ffffffffffffffffffffffffffffffffffffffff1673ffffffffffffffffffffffffffffffffffffffff168152602001908152602001600020600083815260200190815260200160002054905092915050565b610c7e6118ca565b73ffffffffffffffffffffffffffffffffffffffff16610c9c611244565b73ffffffffffffffffffffffffffffffffffffffff1614610cf2576040517f08c379a0000000000000000000000000000000000000000000000000000000008152600401610ce9906136c1565b60405180910390fd5b6000610cfc611244565b73ffffffffffffffffffffffffffffffffffffffff1647604051610d1f9061341d565b60006040518083038185875af1925050503d8060008114610d5c576040519150601f19603f3d011682016040523d82523d6000602084013e610d61565b606091505b5050905080610d6f57600080fd5b50565b610d8d83838360405180602001604052806000815250611426565b505050565b60606000610d9f83611104565b905060008167ffffffffffffffff811115610de3577f4e487b7100000000000000000000000000000000000000000000000000000000600052604160045260246000fd5b604051908082528060200260200182016040528015610e115781602001602082028036833780820191505090505b50905060005b82811015610e8157610e298582610bd1565b828281518110610e62577f4e487b7100000000000000000000000000000000000000000000000000000000600052603260045260246000fd5b6020026020010181815250508080610e7990613acd565b915050610e17565b508092505050919050565b610e946118ca565b73ffffffffffffffffffffffffffffffffffffffff16610eb2611244565b73ffffffffffffffffffffffffffffffffffffffff1614610f08576040517f08c379a0000000000000000000000000000000000000000000000000000000008152600401610eff906136c1565b60405180910390fd5b80600d8190555050565b6000610f1c610b5e565b8210610f5d576040517f08c379a0000000000000000000000000000000000000000000000000000000008152600401610f5490613741565b60405180910390fd5b60088281548110610f97577f4e487b7100000000000000000000000000000000000000000000000000000000600052603260045260246000fd5b90600052602060002001549050919050565b610fb16118ca565b73ffffffffffffffffffffffffffffffffffffffff16610fcf611244565b73ffffffffffffffffffffffffffffffffffffffff1614611025576040517f08c379a000000000000000000000000000000000000000000000000000000000815260040161101c906136c1565b60405180910390fd5b80600b908051906020019061103b929190612b17565b5050565b601060009054906101000a900460ff1681565b6000806002600084815260200190815260200160002060009054906101000a900473ffffffffffffffffffffffffffffffffffffffff169050600073ffffffffffffffffffffffffffffffffffffffff168173ffffffffffffffffffffffffffffffffffffffff1614156110fb576040517f08c379a00000000000000000000000000000000000000000000000000000000081526004016110f290613661565b60405180910390fd5b80915050919050565b60008073ffffffffffffffffffffffffffffffffffffffff168273ffffffffffffffffffffffffffffffffffffffff161415611175576040517f08c379a000000000000000000000000000000000000000000000000000000000815260040161116c90613641565b60405180910390fd5b600360008373ffffffffffffffffffffffffffffffffffffffff1673ffffffffffffffffffffffffffffffffffffffff168152602001908152602001600020549050919050565b6111c46118ca565b73ffffffffffffffffffffffffffffffffffffffff166111e2611244565b73ffffffffffffffffffffffffffffffffffffffff1614611238576040517f08c379a000000000000000000000000000000000000000000000000000000000815260040161122f906136c1565b60405180910390fd5b6112426000611d3c565b565b6000600a60009054906101000a900473ffffffffffffffffffffffffffffffffffffffff16905090565b60606001805461127d90613a6a565b80601f01602080910402602001604051908101604052809291908181526020018280546112a990613a6a565b80156112f65780601f106112cb576101008083540402835291602001916112f6565b820191906000526020600020905b8154815290600101906020018083116112d957829003601f168201915b5050505050905090565b600061130a610b5e565b9050601060009054906101000a900460ff161561132657600080fd5b6001821461133357600080fd5b600f5482111561134257600080fd5b600e548282611351919061389f565b111561135c57600080fd5b611364611244565b73ffffffffffffffffffffffffffffffffffffffff163373ffffffffffffffffffffffffffffffffffffffff16146113b15781600d546113a49190613926565b3410156113b057600080fd5b5b6113c7336001836113c2919061389f565b611e02565b7f1c05098ed1ff38e6238d2b1b04b2c7977d4c94ce651bda6473f9dba8dbf01da0336001836113f6919061389f565b604051611404929190613499565b60405180910390a15050565b61142261141b6118ca565b8383611e20565b5050565b6114376114316118ca565b836119f7565b611476576040517f08c379a000000000000000000000000000000000000000000000000000000000815260040161146d90613721565b60405180910390fd5b61148284848484611f8d565b50505050565b600c805461149590613a6a565b80601f01602080910402602001604051908101604052809291908181526020018280546114c190613a6a565b801561150e5780601f106114e35761010080835404028352916020019161150e565b820191906000526020600020905b8154815290600101906020018083116114f157829003601f168201915b505050505081565b6060611521826118d2565b611560576040517f08c379a0000000000000000000000000000000000000000000000000000000008152600401611557906136e1565b60405180910390fd5b600061156a611fe9565b9050600081511161158a57604051806020016040528060008152506115b8565b806115948461207b565b600c6040516020016115a8939291906133ec565b6040516020818303038152906040525b915050919050565b600e5481565b6115ce6118ca565b73ffffffffffffffffffffffffffffffffffffffff166115ec611244565b73ffffffffffffffffffffffffffffffffffffffff1614611642576040517f08c379a0000000000000000000000000000000000000000000000000000000008152600401611639906136c1565b60405180910390fd5b80600c9080519060200190611658929190612b17565b5050565b6000600560008473ffffffffffffffffffffffffffffffffffffffff1673ffffffffffffffffffffffffffffffffffffffff16815260200190815260200160002060008373ffffffffffffffffffffffffffffffffffffffff1673ffffffffffffffffffffffffffffffffffffffff16815260200190815260200160002060009054906101000a900460ff16905092915050565b6116f86118ca565b73ffffffffffffffffffffffffffffffffffffffff16611716611244565b73ffffffffffffffffffffffffffffffffffffffff161461176c576040517f08c379a0000000000000000000000000000000000000000000000000000000008152600401611763906136c1565b60405180910390fd5b600073ffffffffffffffffffffffffffffffffffffffff168173ffffffffffffffffffffffffffffffffffffffff1614156117dc576040517f08c379a00000000000000000000000000000000000000000000000000000000081526004016117d390613561565b60405180910390fd5b6117e581611d3c565b50565b60007f80ac58cd000000000000000000000000000000000000000000000000000000007bffffffffffffffffffffffffffffffffffffffffffffffffffffffff1916827bffffffffffffffffffffffffffffffffffffffffffffffffffffffff191614806118b357507f5b5e139f000000000000000000000000000000000000000000000000000000007bffffffffffffffffffffffffffffffffffffffffffffffffffffffff1916827bffffffffffffffffffffffffffffffffffffffffffffffffffffffff1916145b806118c357506118c282612228565b5b9050919050565b600033905090565b60008073ffffffffffffffffffffffffffffffffffffffff166002600084815260200190815260200160002060009054906101000a900473ffffffffffffffffffffffffffffffffffffffff1673ffffffffffffffffffffffffffffffffffffffff1614159050919050565b816004600083815260200190815260200160002060006101000a81548173ffffffffffffffffffffffffffffffffffffffff021916908373ffffffffffffffffffffffffffffffffffffffff160217905550808273ffffffffffffffffffffffffffffffffffffffff166119b183611052565b73ffffffffffffffffffffffffffffffffffffffff167f8c5be1e5ebec7d5bd14f71427d1e84f3dd0314c0f7b2291e5b200ac8c7c3b92560405160405180910390a45050565b6000611a02826118d2565b611a41576040517f08c379a0000000000000000000000000000000000000000000000000000000008152600401611a3890613601565b60405180910390fd5b6000611a4c83611052565b90508073ffffffffffffffffffffffffffffffffffffffff168473ffffffffffffffffffffffffffffffffffffffff161480611a8e5750611a8d818561165c565b5b80611acc57508373ffffffffffffffffffffffffffffffffffffffff16611ab484610935565b73ffffffffffffffffffffffffffffffffffffffff16145b91505092915050565b8273ffffffffffffffffffffffffffffffffffffffff16611af582611052565b73ffffffffffffffffffffffffffffffffffffffff1614611b4b576040517f08c379a0000000000000000000000000000000000000000000000000000000008152600401611b4290613581565b60405180910390fd5b600073ffffffffffffffffffffffffffffffffffffffff168273ffffffffffffffffffffffffffffffffffffffff161415611bbb576040517f08c379a0000000000000000000000000000000000000000000000000000000008152600401611bb2906135c1565b60405180910390fd5b611bc6838383612292565b611bd160008261193e565b6001600360008573ffffffffffffffffffffffffffffffffffffffff1673ffffffffffffffffffffffffffffffffffffffff1681526020019081526020016000206000828254611c219190613980565b925050819055506001600360008473ffffffffffffffffffffffffffffffffffffffff1673ffffffffffffffffffffffffffffffffffffffff1681526020019081526020016000206000828254611c78919061389f565b92505081905550816002600083815260200190815260200160002060006101000a81548173ffffffffffffffffffffffffffffffffffffffff021916908373ffffffffffffffffffffffffffffffffffffffff160217905550808273ffffffffffffffffffffffffffffffffffffffff168473ffffffffffffffffffffffffffffffffffffffff167fddf252ad1be2c89b69c2b068fc378daa952ba7f163c4a11628f55a4df523b3ef60405160405180910390a4611d378383836123a6565b505050565b6000600a60009054906101000a900473ffffffffffffffffffffffffffffffffffffffff16905081600a60006101000a81548173ffffffffffffffffffffffffffffffffffffffff021916908373ffffffffffffffffffffffffffffffffffffffff1602179055508173ffffffffffffffffffffffffffffffffffffffff168173ffffffffffffffffffffffffffffffffffffffff167f8be0079c531659141344cd1fd0a4f28419497f9722a3daafe3b4186f6b6457e060405160405180910390a35050565b611e1c8282604051806020016040528060008152506123ab565b5050565b8173ffffffffffffffffffffffffffffffffffffffff168373ffffffffffffffffffffffffffffffffffffffff161415611e8f576040517f08c379a0000000000000000000000000000000000000000000000000000000008152600401611e86906135e1565b60405180910390fd5b80600560008573ffffffffffffffffffffffffffffffffffffffff1673ffffffffffffffffffffffffffffffffffffffff16815260200190815260200160002060008473ffffffffffffffffffffffffffffffffffffffff1673ffffffffffffffffffffffffffffffffffffffff16815260200190815260200160002060006101000a81548160ff0219169083151502179055508173ffffffffffffffffffffffffffffffffffffffff168373ffffffffffffffffffffffffffffffffffffffff167f17307eab39ab6107e8899845ad3d59bd9653f200f220920489ca2b5937696c3183604051611f8091906134e4565b60405180910390a3505050565b611f98848484611ad5565b611fa484848484612406565b611fe3576040517f08c379a0000000000000000000000000000000000000000000000000000000008152600401611fda90613541565b60405180910390fd5b50505050565b6060600b8054611ff890613a6a565b80601f016020809104026020016040519081016040528092919081815260200182805461202490613a6a565b80156120715780601f1061204657610100808354040283529160200191612071565b820191906000526020600020905b81548152906001019060200180831161205457829003601f168201915b5050505050905090565b606060008214156120c3576040518060400160405280600181526020017f30000000000000000000000000000000000000000000000000000000000000008152509050612223565b600082905060005b600082146120f55780806120de90613acd565b915050600a826120ee91906138f5565b91506120cb565b60008167ffffffffffffffff811115612137577f4e487b7100000000000000000000000000000000000000000000000000000000600052604160045260246000fd5b6040519080825280601f01601f1916602001820160405280156121695781602001600182028036833780820191505090505b5090505b6000851461221c576001826121829190613980565b9150600a856121919190613b16565b603061219d919061389f565b60f81b8183815181106121d9577f4e487b7100000000000000000000000000000000000000000000000000000000600052603260045260246000fd5b60200101907effffffffffffffffffffffffffffffffffffffffffffffffffffffffffffff1916908160001a905350600a8561221591906138f5565b945061216d565b8093505050505b919050565b60007f01ffc9a7000000000000000000000000000000000000000000000000000000007bffffffffffffffffffffffffffffffffffffffffffffffffffffffff1916827bffffffffffffffffffffffffffffffffffffffffffffffffffffffff1916149050919050565b61229d83838361259d565b600073ffffffffffffffffffffffffffffffffffffffff168373ffffffffffffffffffffffffffffffffffffffff1614156122e0576122db816125a2565b61231f565b8173ffffffffffffffffffffffffffffffffffffffff168373ffffffffffffffffffffffffffffffffffffffff161461231e5761231d83826125eb565b5b5b600073ffffffffffffffffffffffffffffffffffffffff168273ffffffffffffffffffffffffffffffffffffffff1614156123625761235d81612758565b6123a1565b8273ffffffffffffffffffffffffffffffffffffffff168273ffffffffffffffffffffffffffffffffffffffff16146123a05761239f828261289b565b5b5b505050565b505050565b6123b5838361291a565b6123c26000848484612406565b612401576040517f08c379a00000000000000000000000000000000000000000000000000000000081526004016123f890613541565b60405180910390fd5b505050565b60006124278473ffffffffffffffffffffffffffffffffffffffff16612af4565b15612590578373ffffffffffffffffffffffffffffffffffffffff1663150b7a026124506118ca565b8786866040518563ffffffff1660e01b8152600401612472949392919061344d565b602060405180830381600087803b15801561248c57600080fd5b505af19250505080156124bd57506040513d601f19601f820116820180604052508101906124ba9190612eec565b60015b612540573d80600081146124ed576040519150601f19603f3d011682016040523d82523d6000602084013e6124f2565b606091505b50600081511415612538576040517f08c379a000000000000000000000000000000000000000000000000000000000815260040161252f90613541565b60405180910390fd5b805181602001fd5b63150b7a0260e01b7bffffffffffffffffffffffffffffffffffffffffffffffffffffffff1916817bffffffffffffffffffffffffffffffffffffffffffffffffffffffff191614915050612595565b600190505b949350505050565b505050565b6008805490506009600083815260200190815260200160002081905550600881908060018154018082558091505060019003906000526020600020016000909190919091505550565b600060016125f884611104565b6126029190613980565b90506000600760008481526020019081526020016000205490508181146126e7576000600660008673ffffffffffffffffffffffffffffffffffffffff1673ffffffffffffffffffffffffffffffffffffffff168152602001908152602001600020600084815260200190815260200160002054905080600660008773ffffffffffffffffffffffffffffffffffffffff1673ffffffffffffffffffffffffffffffffffffffff168152602001908152602001600020600084815260200190815260200160002081905550816007600083815260200190815260200160002081905550505b6007600084815260200190815260200160002060009055600660008573ffffffffffffffffffffffffffffffffffffffff1673ffffffffffffffffffffffffffffffffffffffff16815260200190815260200160002060008381526020019081526020016000206000905550505050565b6000600160088054905061276c9190613980565b90506000600960008481526020019081526020016000205490506000600883815481106127c2577f4e487b7100000000000000000000000000000000000000000000000000000000600052603260045260246000fd5b90600052602060002001549050806008838154811061280a577f4e487b7100000000000000000000000000000000000000000000000000000000600052603260045260246000fd5b90600052602060002001819055508160096000838152602001908152602001600020819055506009600085815260200190815260200160002060009055600880548061287f577f4e487b7100000000000000000000000000000000000000000000000000000000600052603160045260246000fd5b6001900381819060005260206000200160009055905550505050565b60006128a683611104565b905081600660008573ffffffffffffffffffffffffffffffffffffffff1673ffffffffffffffffffffffffffffffffffffffff168152602001908152602001600020600083815260200190815260200160002081905550806007600084815260200190815260200160002081905550505050565b600073ffffffffffffffffffffffffffffffffffffffff168273ffffffffffffffffffffffffffffffffffffffff16141561298a576040517f08c379a000000000000000000000000000000000000000000000000000000000815260040161298190613681565b60405180910390fd5b612993816118d2565b156129d3576040517f08c379a00000000000000000000000000000000000000000000000000000000081526004016129ca906135a1565b60405180910390fd5b6129df60008383612292565b6001600360008473ffffffffffffffffffffffffffffffffffffffff1673ffffffffffffffffffffffffffffffffffffffff1681526020019081526020016000206000828254612a2f919061389f565b92505081905550816002600083815260200190815260200160002060006101000a81548173ffffffffffffffffffffffffffffffffffffffff021916908373ffffffffffffffffffffffffffffffffffffffff160217905550808273ffffffffffffffffffffffffffffffffffffffff16600073ffffffffffffffffffffffffffffffffffffffff167fddf252ad1be2c89b69c2b068fc378daa952ba7f163c4a11628f55a4df523b3ef60405160405180910390a4612af0600083836123a6565b5050565b6000808273ffffffffffffffffffffffffffffffffffffffff163b119050919050565b828054612b2390613a6a565b90600052602060002090601f016020900481019282612b455760008555612b8c565b82601f10612b5e57805160ff1916838001178555612b8c565b82800160010185558215612b8c579182015b82811115612b8b578251825591602001919060010190612b70565b5b509050612b999190612b9d565b5090565b5b80821115612bb6576000816000905550600101612b9e565b5090565b6000612bcd612bc8846137a1565b61377c565b905082815260208101848484011115612be557600080fd5b612bf0848285613a28565b509392505050565b6000612c0b612c06846137d2565b61377c565b905082815260208101848484011115612c2357600080fd5b612c2e848285613a28565b509392505050565b600081359050612c458161410d565b92915050565b600081359050612c5a81614124565b92915050565b600081359050612c6f8161413b565b92915050565b600081519050612c848161413b565b92915050565b600082601f830112612c9b57600080fd5b8135612cab848260208601612bba565b91505092915050565b600082601f830112612cc557600080fd5b8135612cd5848260208601612bf8565b91505092915050565b600081359050612ced81614152565b92915050565b600060208284031215612d0557600080fd5b6000612d1384828501612c36565b91505092915050565b60008060408385031215612d2f57600080fd5b6000612d3d85828601612c36565b9250506020612d4e85828601612c36565b9150509250929050565b600080600060608486031215612d6d57600080fd5b6000612d7b86828701612c36565b9350506020612d8c86828701612c36565b9250506040612d9d86828701612cde565b9150509250925092565b60008060008060808587031215612dbd57600080fd5b6000612dcb87828801612c36565b9450506020612ddc87828801612c36565b9350506040612ded87828801612cde565b925050606085013567ffffffffffffffff811115612e0a57600080fd5b612e1687828801612c8a565b91505092959194509250565b60008060408385031215612e3557600080fd5b6000612e4385828601612c36565b9250506020612e5485828601612c4b565b9150509250929050565b60008060408385031215612e7157600080fd5b6000612e7f85828601612c36565b9250506020612e9085828601612cde565b9150509250929050565b600060208284031215612eac57600080fd5b6000612eba84828501612c4b565b91505092915050565b600060208284031215612ed557600080fd5b6000612ee384828501612c60565b91505092915050565b600060208284031215612efe57600080fd5b6000612f0c84828501612c75565b91505092915050565b600060208284031215612f2757600080fd5b600082013567ffffffffffffffff811115612f4157600080fd5b612f4d84828501612cb4565b91505092915050565b600060208284031215612f6857600080fd5b6000612f7684828501612cde565b91505092915050565b6000612f8b83836133ce565b60208301905092915050565b612fa0816139b4565b82525050565b6000612fb182613828565b612fbb8185613856565b9350612fc683613803565b8060005b83811015612ff7578151612fde8882612f7f565b9750612fe983613849565b925050600181019050612fca565b5085935050505092915050565b61300d816139c6565b82525050565b600061301e82613833565b6130288185613867565b9350613038818560208601613a37565b61304181613c03565b840191505092915050565b60006130578261383e565b6130618185613883565b9350613071818560208601613a37565b61307a81613c03565b840191505092915050565b60006130908261383e565b61309a8185613894565b93506130aa818560208601613a37565b80840191505092915050565b600081546130c381613a6a565b6130cd8186613894565b945060018216600081146130e857600181146130f95761312c565b60ff1983168652818601935061312c565b61310285613813565b60005b8381101561312457815481890152600182019150602081019050613105565b838801955050505b50505092915050565b6000613142602b83613883565b915061314d82613c14565b604082019050919050565b6000613165603283613883565b915061317082613c63565b604082019050919050565b6000613188602683613883565b915061319382613cb2565b604082019050919050565b60006131ab602583613883565b91506131b682613d01565b604082019050919050565b60006131ce601c83613883565b91506131d982613d50565b602082019050919050565b60006131f1602483613883565b91506131fc82613d79565b604082019050919050565b6000613214601983613883565b915061321f82613dc8565b602082019050919050565b6000613237602c83613883565b915061324282613df1565b604082019050919050565b600061325a603883613883565b915061326582613e40565b604082019050919050565b600061327d602a83613883565b915061328882613e8f565b604082019050919050565b60006132a0602983613883565b91506132ab82613ede565b604082019050919050565b60006132c3602083613883565b91506132ce82613f2d565b602082019050919050565b60006132e6602c83613883565b91506132f182613f56565b604082019050919050565b6000613309602083613883565b915061331482613fa5565b602082019050919050565b600061332c602f83613883565b915061333782613fce565b604082019050919050565b600061334f602183613883565b915061335a8261401d565b604082019050919050565b6000613372600083613878565b915061337d8261406c565b600082019050919050565b6000613395603183613883565b91506133a08261406f565b604082019050919050565b60006133b8602c83613883565b91506133c3826140be565b604082019050919050565b6133d781613a1e565b82525050565b6133e681613a1e565b82525050565b60006133f88286613085565b91506134048285613085565b915061341082846130b6565b9150819050949350505050565b600061342882613365565b9150819050919050565b60006020820190506134476000830184612f97565b92915050565b60006080820190506134626000830187612f97565b61346f6020830186612f97565b61347c60408301856133dd565b818103606083015261348e8184613013565b905095945050505050565b60006040820190506134ae6000830185612f97565b6134bb60208301846133dd565b9392505050565b600060208201905081810360008301526134dc8184612fa6565b905092915050565b60006020820190506134f96000830184613004565b92915050565b60006020820190508181036000830152613519818461304c565b905092915050565b6000602082019050818103600083015261353a81613135565b9050919050565b6000602082019050818103600083015261355a81613158565b9050919050565b6000602082019050818103600083015261357a8161317b565b9050919050565b6000602082019050818103600083015261359a8161319e565b9050919050565b600060208201905081810360008301526135ba816131c1565b9050919050565b600060208201905081810360008301526135da816131e4565b9050919050565b600060208201905081810360008301526135fa81613207565b9050919050565b6000602082019050818103600083015261361a8161322a565b9050919050565b6000602082019050818103600083015261363a8161324d565b9050919050565b6000602082019050818103600083015261365a81613270565b9050919050565b6000602082019050818103600083015261367a81613293565b9050919050565b6000602082019050818103600083015261369a816132b6565b9050919050565b600060208201905081810360008301526136ba816132d9565b9050919050565b600060208201905081810360008301526136da816132fc565b9050919050565b600060208201905081810360008301526136fa8161331f565b9050919050565b6000602082019050818103600083015261371a81613342565b9050919050565b6000602082019050818103600083015261373a81613388565b9050919050565b6000602082019050818103600083015261375a816133ab565b9050919050565b600060208201905061377660008301846133dd565b92915050565b6000613786613797565b90506137928282613a9c565b919050565b6000604051905090565b600067ffffffffffffffff8211156137bc576137bb613bd4565b5b6137c582613c03565b9050602081019050919050565b600067ffffffffffffffff8211156137ed576137ec613bd4565b5b6137f682613c03565b9050602081019050919050565b6000819050602082019050919050565b60008190508160005260206000209050919050565b600081519050919050565b600081519050919050565b600081519050919050565b6000602082019050919050565b600082825260208201905092915050565b600082825260208201905092915050565b600081905092915050565b600082825260208201905092915050565b600081905092915050565b60006138aa82613a1e565b91506138b583613a1e565b9250827fffffffffffffffffffffffffffffffffffffffffffffffffffffffffffffffff038211156138ea576138e9613b47565b5b828201905092915050565b600061390082613a1e565b915061390b83613a1e565b92508261391b5761391a613b76565b5b828204905092915050565b600061393182613a1e565b915061393c83613a1e565b9250817fffffffffffffffffffffffffffffffffffffffffffffffffffffffffffffffff048311821515161561397557613974613b47565b5b828202905092915050565b600061398b82613a1e565b915061399683613a1e565b9250828210156139a9576139a8613b47565b5b828203905092915050565b60006139bf826139fe565b9050919050565b60008115159050919050565b60007fffffffff0000000000000000000000000000000000000000000000000000000082169050919050565b600073ffffffffffffffffffffffffffffffffffffffff82169050919050565b6000819050919050565b82818337600083830152505050565b60005b83811015613a55578082015181840152602081019050613a3a565b83811115613a64576000848401525b50505050565b60006002820490506001821680613a8257607f821691505b60208210811415613a9657613a95613ba5565b5b50919050565b613aa582613c03565b810181811067ffffffffffffffff82111715613ac457613ac3613bd4565b5b80604052505050565b6000613ad882613a1e565b91507fffffffffffffffffffffffffffffffffffffffffffffffffffffffffffffffff821415613b0b57613b0a613b47565b5b600182019050919050565b6000613b2182613a1e565b9150613b2c83613a1e565b925082613b3c57613b3b613b76565b5b828206905092915050565b7f4e487b7100000000000000000000000000000000000000000000000000000000600052601160045260246000fd5b7f4e487b7100000000000000000000000000000000000000000000000000000000600052601260045260246000fd5b7f4e487b7100000000000000000000000000000000000000000000000000000000600052602260045260246000fd5b7f4e487b7100000000000000000000000000000000000000000000000000000000600052604160045260246000fd5b6000601f19601f8301169050919050565b7f455243373231456e756d657261626c653a206f776e657220696e646578206f7560008201527f74206f6620626f756e6473000000000000000000000000000000000000000000602082015250565b7f4552433732313a207472616e7366657220746f206e6f6e20455243373231526560008201527f63656976657220696d706c656d656e7465720000000000000000000000000000602082015250565b7f4f776e61626c653a206e6577206f776e657220697320746865207a65726f206160008201527f6464726573730000000000000000000000000000000000000000000000000000602082015250565b7f4552433732313a207472616e736665722066726f6d20696e636f72726563742060008201527f6f776e6572000000000000000000000000000000000000000000000000000000602082015250565b7f4552433732313a20746f6b656e20616c7265616479206d696e74656400000000600082015250565b7f4552433732313a207472616e7366657220746f20746865207a65726f2061646460008201527f7265737300000000000000000000000000000000000000000000000000000000602082015250565b7f4552433732313a20617070726f766520746f2063616c6c657200000000000000600082015250565b7f4552433732313a206f70657261746f7220717565727920666f72206e6f6e657860008201527f697374656e7420746f6b656e0000000000000000000000000000000000000000602082015250565b7f4552433732313a20617070726f76652063616c6c6572206973206e6f74206f7760008201527f6e6572206e6f7220617070726f76656420666f7220616c6c0000000000000000602082015250565b7f4552433732313a2062616c616e636520717565727920666f7220746865207a6560008201527f726f206164647265737300000000000000000000000000000000000000000000602082015250565b7f4552433732313a206f776e657220717565727920666f72206e6f6e657869737460008201527f656e7420746f6b656e0000000000000000000000000000000000000000000000602082015250565b7f4552433732313a206d696e7420746f20746865207a65726f2061646472657373600082015250565b7f4552433732313a20617070726f76656420717565727920666f72206e6f6e657860008201527f697374656e7420746f6b656e0000000000000000000000000000000000000000602082015250565b7f4f776e61626c653a2063616c6c6572206973206e6f7420746865206f776e6572600082015250565b7f4552433732314d657461646174613a2055524920717565727920666f72206e6f60008201527f6e6578697374656e7420746f6b656e0000000000000000000000000000000000602082015250565b7f4552433732313a20617070726f76616c20746f2063757272656e74206f776e6560008201527f7200000000000000000000000000000000000000000000000000000000000000602082015250565b50565b7f4552433732313a207472616e736665722063616c6c6572206973206e6f74206f60008201527f776e6572206e6f7220617070726f766564000000000000000000000000000000602082015250565b7f455243373231456e756d657261626c653a20676c6f62616c20696e646578206f60008201527f7574206f6620626f756e64730000000000000000000000000000000000000000602082015250565b614116816139b4565b811461412157600080fd5b50565b61412d816139c6565b811461413857600080fd5b50565b614144816139d2565b811461414f57600080fd5b50565b61415b81613a1e565b811461416657600080fd5b5056fea26469706673582212205280f4268250821abd4cbb8bec1c7d3b37308bcff666140b7230cd08031f923264736f6c63430008010033",
  "linkReferences": {},
  "deployedLinkReferences": {}
}