{
  "_format": "hh-sol-artifact-1",
  "contractName": "NFTCollection",
  "sourceName": "contracts/NFTCollection.sol",
  "abi": [
    {
      "inputs": [
        {
          "internalType": "string",
          "name": "_name",
          "type": "string"
        },
        {
          "internalType": "string",
          "name": "_symbol",
          "type": "string"
        },
        {
          "internalType": "string",
          "name": "_initBaseURI",
          "type": "string"
        }
      ],
      "stateMutability": "nonpayable",
      "type": "constructor"
    },
    {
      "anonymous": false,
      "inputs": [
        {
          "indexed": true,
          "internalType": "address",
          "name": "owner",
          "type": "address"
        },
        {
          "indexed": true,
          "internalType": "address",
          "name": "approved",
          "type": "address"
        },
        {
          "indexed": true,
          "internalType": "uint256",
          "name": "tokenId",
          "type": "uint256"
        }
      ],
      "name": "Approval",
      "type": "event"
    },
    {
      "anonymous": false,
      "inputs": [
        {
          "indexed": true,
          "internalType": "address",
          "name": "owner",
          "type": "address"
        },
        {
          "indexed": true,
          "internalType": "address",
          "name": "operator",
          "type": "address"
        },
        {
          "indexed": false,
          "internalType": "bool",
          "name": "approved",
          "type": "bool"
        }
      ],
      "name": "ApprovalForAll",
      "type": "event"
    },
    {
      "anonymous": false,
      "inputs": [
        {
          "indexed": false,
          "internalType": "address",
          "name": "sender",
          "type": "address"
        },
        {
          "indexed": false,
          "internalType": "uint256",
          "name": "tokenId",
          "type": "uint256"
        }
      ],
      "name": "NewNFTMinted",
      "type": "event"
    },
    {
      "anonymous": false,
      "inputs": [
        {
          "indexed": true,
          "internalType": "address",
          "name": "previousOwner",
          "type": "address"
        },
        {
          "indexed": true,
          "internalType": "address",
          "name": "newOwner",
          "type": "address"
        }
      ],
      "name": "OwnershipTransferred",
      "type": "event"
    },
    {
      "anonymous": false,
      "inputs": [
        {
          "indexed": true,
          "internalType": "address",
          "name": "from",
          "type": "address"
        },
        {
          "indexed": true,
          "internalType": "address",
          "name": "to",
          "type": "address"
        },
        {
          "indexed": true,
          "internalType": "uint256",
          "name": "tokenId",
          "type": "uint256"
        }
      ],
      "name": "Transfer",
      "type": "event"
    },
    {
      "inputs": [
        {
          "internalType": "address",
          "name": "to",
          "type": "address"
        },
        {
          "internalType": "uint256",
          "name": "tokenId",
          "type": "uint256"
        }
      ],
      "name": "approve",
      "outputs": [],
      "stateMutability": "nonpayable",
      "type": "function"
    },
    {
      "inputs": [
        {
          "internalType": "address",
          "name": "owner",
          "type": "address"
        }
      ],
      "name": "balanceOf",
      "outputs": [
        {
          "internalType": "uint256",
          "name": "",
          "type": "uint256"
        }
      ],
      "stateMutability": "view",
      "type": "function"
    },
    {
      "inputs": [],
      "name": "baseExtension",
      "outputs": [
        {
          "internalType": "string",
          "name": "",
          "type": "string"
        }
      ],
      "stateMutability": "view",
      "type": "function"
    },
    {
      "inputs": [],
      "name": "cost",
      "outputs": [
        {
          "internalType": "uint256",
          "name": "",
          "type": "uint256"
        }
      ],
      "stateMutability": "view",
      "type": "function"
    },
    {
      "inputs": [
        {
          "internalType": "uint256",
          "name": "tokenId",
          "type": "uint256"
        }
      ],
      "name": "getApproved",
      "outputs": [
        {
          "internalType": "address",
          "name": "",
          "type": "address"
        }
      ],
      "stateMutability": "view",
      "type": "function"
    },
    {
      "inputs": [
        {
          "internalType": "address",
          "name": "owner",
          "type": "address"
        },
        {
          "internalType": "address",
          "name": "operator",
          "type": "address"
        }
      ],
      "name": "isApprovedForAll",
      "outputs": [
        {
          "internalType": "bool",
          "name": "",
          "type": "bool"
        }
      ],
      "stateMutability": "view",
      "type": "function"
    },
    {
      "inputs": [],
      "name": "maxMintAmount",
      "outputs": [
        {
          "internalType": "uint256",
          "name": "",
          "type": "uint256"
        }
      ],
      "stateMutability": "view",
      "type": "function"
    },
    {
      "inputs": [],
      "name": "maxSupply",
      "outputs": [
        {
          "internalType": "uint256",
          "name": "",
          "type": "uint256"
        }
      ],
      "stateMutability": "view",
      "type": "function"
    },
    {
      "inputs": [
        {
          "internalType": "uint256",
          "name": "_mintAmount",
          "type": "uint256"
        }
      ],
      "name": "mint",
      "outputs": [],
      "stateMutability": "payable",
      "type": "function"
    },
    {
      "inputs": [],
      "name": "name",
      "outputs": [
        {
          "internalType": "string",
          "name": "",
          "type": "string"
        }
      ],
      "stateMutability": "view",
      "type": "function"
    },
    {
      "inputs": [],
      "name": "owner",
      "outputs": [
        {
          "internalType": "address",
          "name": "",
          "type": "address"
        }
      ],
      "stateMutability": "view",
      "type": "function"
    },
    {
      "inputs": [
        {
          "internalType": "uint256",
          "name": "tokenId",
          "type": "uint256"
        }
      ],
      "name": "ownerOf",
      "outputs": [
        {
          "internalType": "address",
          "name": "",
          "type": "address"
        }
      ],
      "stateMutability": "view",
      "type": "function"
    },
    {
      "inputs": [
        {
          "internalType": "bool",
          "name": "_state",
          "type": "bool"
        }
      ],
      "name": "pause",
      "outputs": [],
      "stateMutability": "nonpayable",
      "type": "function"
    },
    {
      "inputs": [],
      "name": "paused",
      "outputs": [
        {
          "internalType": "bool",
          "name": "",
          "type": "bool"
        }
      ],
      "stateMutability": "view",
      "type": "function"
    },
    {
      "inputs": [],
      "name": "renounceOwnership",
      "outputs": [],
      "stateMutability": "nonpayable",
      "type": "function"
    },
    {
      "inputs": [
        {
          "internalType": "address",
          "name": "from",
          "type": "address"
        },
        {
          "internalType": "address",
          "name": "to",
          "type": "address"
        },
        {
          "internalType": "uint256",
          "name": "tokenId",
          "type": "uint256"
        }
      ],
      "name": "safeTransferFrom",
      "outputs": [],
      "stateMutability": "nonpayable",
      "type": "function"
    },
    {
      "inputs": [
        {
          "internalType": "address",
          "name": "from",
          "type": "address"
        },
        {
          "internalType": "address",
          "name": "to",
          "type": "address"
        },
        {
          "internalType": "uint256",
          "name": "tokenId",
          "type": "uint256"
        },
        {
          "internalType": "bytes",
          "name": "_data",
          "type": "bytes"
        }
      ],
      "name": "safeTransferFrom",
      "outputs": [],
      "stateMutability": "nonpayable",
      "type": "function"
    },
    {
      "inputs": [
        {
          "internalType": "address",
          "name": "operator",
          "type": "address"
        },
        {
          "internalType": "bool",
          "name": "approved",
          "type": "bool"
        }
      ],
      "name": "setApprovalForAll",
      "outputs": [],
      "stateMutability": "nonpayable",
      "type": "function"
    },
    {
      "inputs": [
        {
          "internalType": "string",
          "name": "_newBaseExtension",
          "type": "string"
        }
      ],
      "name": "setBaseExtension",
      "outputs": [],
      "stateMutability": "nonpayable",
      "type": "function"
    },
    {
      "inputs": [
        {
          "internalType": "string",
          "name": "_newBaseURI",
          "type": "string"
        }
      ],
      "name": "setBaseURI",
      "outputs": [],
      "stateMutability": "nonpayable",
      "type": "function"
    },
    {
      "inputs": [
        {
          "internalType": "uint256",
          "name": "_newCost",
          "type": "uint256"
        }
      ],
      "name": "setCost",
      "outputs": [],
      "stateMutability": "nonpayable",
      "type": "function"
    },
    {
      "inputs": [
        {
          "internalType": "uint256",
          "name": "_newmaxMintAmount",
          "type": "uint256"
        }
      ],
      "name": "setMaxMintAmount",
      "outputs": [],
      "stateMutability": "nonpayable",
      "type": "function"
    },
    {
      "inputs": [
        {
          "internalType": "bytes4",
          "name": "interfaceId",
          "type": "bytes4"
        }
      ],
      "name": "supportsInterface",
      "outputs": [
        {
          "internalType": "bool",
          "name": "",
          "type": "bool"
        }
      ],
      "stateMutability": "view",
      "type": "function"
    },
    {
      "inputs": [],
      "name": "symbol",
      "outputs": [
        {
          "internalType": "string",
          "name": "",
          "type": "string"
        }
      ],
      "stateMutability": "view",
      "type": "function"
    },
    {
      "inputs": [
        {
          "internalType": "uint256",
          "name": "index",
          "type": "uint256"
        }
      ],
      "name": "tokenByIndex",
      "outputs": [
        {
          "internalType": "uint256",
          "name": "",
          "type": "uint256"
        }
      ],
      "stateMutability": "view",
      "type": "function"
    },
    {
      "inputs": [
        {
          "internalType": "address",
          "name": "owner",
          "type": "address"
        },
        {
          "internalType": "uint256",
          "name": "index",
          "type": "uint256"
        }
      ],
      "name": "tokenOfOwnerByIndex",
      "outputs": [
        {
          "internalType": "uint256",
          "name": "",
          "type": "uint256"
        }
      ],
      "stateMutability": "view",
      "type": "function"
    },
    {
      "inputs": [
        {
          "internalType": "uint256",
          "name": "tokenId",
          "type": "uint256"
        }
      ],
      "name": "tokenURI",
      "outputs": [
        {
          "internalType": "string",
          "name": "",
          "type": "string"
        }
      ],
      "stateMutability": "view",
      "type": "function"
    },
    {
      "inputs": [],
      "name": "totalSupply",
      "outputs": [
        {
          "internalType": "uint256",
          "name": "",
          "type": "uint256"
        }
      ],
      "stateMutability": "view",
      "type": "function"
    },
    {
      "inputs": [
        {
          "internalType": "address",
          "name": "from",
          "type": "address"
        },
        {
          "internalType": "address",
          "name": "to",
          "type": "address"
        },
        {
          "internalType": "uint256",
          "name": "tokenId",
          "type": "uint256"
        }
      ],
      "name": "transferFrom",
      "outputs": [],
      "stateMutability": "nonpayable",
      "type": "function"
    },
    {
      "inputs": [
        {
          "internalType": "address",
          "name": "newOwner",
          "type": "address"
        }
      ],
      "name": "transferOwnership",
      "outputs": [],
      "stateMutability": "nonpayable",
      "type": "function"
    },
    {
      "inputs": [
        {
          "internalType": "address",
          "name": "_owner",
          "type": "address"
        }
      ],
      "name": "walletOfOwner",
      "outputs": [
        {
          "internalType": "uint256[]",
          "name": "",
          "type": "uint256[]"
        }
      ],
      "stateMutability": "view",
      "type": "function"
    },
    {
      "inputs": [],
      "name": "withdraw",
      "outputs": [],
      "stateMutability": "payable",
      "type": "function"
    }
  ],
  "bytecode": "0x60806040526040518060400160405280600581526020017f2e6a736f6e000000000000000000000000000000000000000000000000000000815250600c908051906020019062000051929190620002c8565b50662386f26fc10000600d556064600e556001600f556000601060006101000a81548160ff0219169083151502179055503480156200008f57600080fd5b506040516200477e3803806200477e8339818101604052810190620000b59190620003ea565b82828160009080519060200190620000cf929190620002c8565b508060019080519060200190620000e8929190620002c8565b5050506200010b620000ff6200012560201b60201c565b6200012d60201b60201c565b6200011c81620001f360201b60201c565b5050506200067e565b600033905090565b6000600a60009054906101000a900473ffffffffffffffffffffffffffffffffffffffff16905081600a60006101000a81548173ffffffffffffffffffffffffffffffffffffffff021916908373ffffffffffffffffffffffffffffffffffffffff1602179055508173ffffffffffffffffffffffffffffffffffffffff168173ffffffffffffffffffffffffffffffffffffffff167f8be0079c531659141344cd1fd0a4f28419497f9722a3daafe3b4186f6b6457e060405160405180910390a35050565b620002036200012560201b60201c565b73ffffffffffffffffffffffffffffffffffffffff16620002296200029e60201b60201c565b73ffffffffffffffffffffffffffffffffffffffff161462000282576040517f08c379a00000000000000000000000000000000000000000000000000000000081526004016200027990620004b2565b60405180910390fd5b80600b90805190602001906200029a929190620002c8565b5050565b6000600a60009054906101000a900473ffffffffffffffffffffffffffffffffffffffff16905090565b828054620002d6906200057a565b90600052602060002090601f016020900481019282620002fa576000855562000346565b82601f106200031557805160ff191683800117855562000346565b8280016001018555821562000346579182015b828111156200034557825182559160200191906001019062000328565b5b50905062000355919062000359565b5090565b5b80821115620003745760008160009055506001016200035a565b5090565b60006200038f6200038984620004fd565b620004d4565b905082815260208101848484011115620003a857600080fd5b620003b584828562000544565b509392505050565b600082601f830112620003cf57600080fd5b8151620003e184826020860162000378565b91505092915050565b6000806000606084860312156200040057600080fd5b600084015167ffffffffffffffff8111156200041b57600080fd5b6200042986828701620003bd565b935050602084015167ffffffffffffffff8111156200044757600080fd5b6200045586828701620003bd565b925050604084015167ffffffffffffffff8111156200047357600080fd5b6200048186828701620003bd565b9150509250925092565b60006200049a60208362000533565b9150620004a78262000655565b602082019050919050565b60006020820190508181036000830152620004cd816200048b565b9050919050565b6000620004e0620004f3565b9050620004ee8282620005b0565b919050565b6000604051905090565b600067ffffffffffffffff8211156200051b576200051a62000615565b5b620005268262000644565b9050602081019050919050565b600082825260208201905092915050565b60005b838110156200056457808201518184015260208101905062000547565b8381111562000574576000848401525b50505050565b600060028204905060018216806200059357607f821691505b60208210811415620005aa57620005a9620005e6565b5b50919050565b620005bb8262000644565b810181811067ffffffffffffffff82111715620005dd57620005dc62000615565b5b80604052505050565b7f4e487b7100000000000000000000000000000000000000000000000000000000600052602260045260246000fd5b7f4e487b7100000000000000000000000000000000000000000000000000000000600052604160045260246000fd5b6000601f19601f8301169050919050565b7f4f776e61626c653a2063616c6c6572206973206e6f7420746865206f776e6572600082015250565b6140f0806200068e6000396000f3fe6080604052600436106101e35760003560e01c806355f804b311610102578063a22cb46511610095578063d5abeb0111610064578063d5abeb01146106d6578063da3ef23f14610701578063e985e9c51461072a578063f2fde38b14610767576101e3565b8063a22cb4651461061c578063b88d4fde14610645578063c66828621461066e578063c87b56dd14610699576101e3565b8063715018a6116100d1578063715018a6146105935780638da5cb5b146105aa57806395d89b41146105d5578063a0712d6814610600576101e3565b806355f804b3146104c55780635c975abb146104ee5780636352211e1461051957806370a0823114610556576101e3565b8063239c70ae1161017a57806342842e0e1161014957806342842e0e146103f9578063438b63001461042257806344a0d68a1461045f5780634f6ccce714610488576101e3565b8063239c70ae1461035e57806323b872dd146103895780632f745c59146103b25780633ccfd60b146103ef576101e3565b8063088a4ed0116101b6578063088a4ed0146102b6578063095ea7b3146102df57806313faede61461030857806318160ddd14610333576101e3565b806301ffc9a7146101e857806302329a291461022557806306fdde031461024e578063081812fc14610279575b600080fd5b3480156101f457600080fd5b5061020f600480360381019061020a9190612e6e565b610790565b60405161021c919061348f565b60405180910390f35b34801561023157600080fd5b5061024c60048036038101906102479190612e45565b61080a565b005b34801561025a57600080fd5b506102636108a3565b60405161027091906134aa565b60405180910390f35b34801561028557600080fd5b506102a0600480360381019061029b9190612f01565b610935565b6040516102ad91906133dd565b60405180910390f35b3480156102c257600080fd5b506102dd60048036038101906102d89190612f01565b6109ba565b005b3480156102eb57600080fd5b5061030660048036038101906103019190612e09565b610a40565b005b34801561031457600080fd5b5061031d610b58565b60405161032a919061370c565b60405180910390f35b34801561033f57600080fd5b50610348610b5e565b604051610355919061370c565b60405180910390f35b34801561036a57600080fd5b50610373610b6b565b604051610380919061370c565b60405180910390f35b34801561039557600080fd5b506103b060048036038101906103ab9190612d03565b610b71565b005b3480156103be57600080fd5b506103d960048036038101906103d49190612e09565b610bd1565b6040516103e6919061370c565b60405180910390f35b6103f7610c76565b005b34801561040557600080fd5b50610420600480360381019061041b9190612d03565b610d72565b005b34801561042e57600080fd5b5061044960048036038101906104449190612c9e565b610d92565b604051610456919061346d565b60405180910390f35b34801561046b57600080fd5b5061048660048036038101906104819190612f01565b610e8c565b005b34801561049457600080fd5b506104af60048036038101906104aa9190612f01565b610f12565b6040516104bc919061370c565b60405180910390f35b3480156104d157600080fd5b506104ec60048036038101906104e79190612ec0565b610fa9565b005b3480156104fa57600080fd5b5061050361103f565b604051610510919061348f565b60405180910390f35b34801561052557600080fd5b50610540600480360381019061053b9190612f01565b611052565b60405161054d91906133dd565b60405180910390f35b34801561056257600080fd5b5061057d60048036038101906105789190612c9e565b611104565b60405161058a919061370c565b60405180910390f35b34801561059f57600080fd5b506105a86111bc565b005b3480156105b657600080fd5b506105bf611244565b6040516105cc91906133dd565b60405180910390f35b3480156105e157600080fd5b506105ea61126e565b6040516105f791906134aa565b60405180910390f35b61061a60048036038101906106159190612f01565b611300565b005b34801561062857600080fd5b50610643600480360381019061063e9190612dcd565b6113bb565b005b34801561065157600080fd5b5061066c60048036038101906106679190612d52565b6113d1565b005b34801561067a57600080fd5b50610683611433565b60405161069091906134aa565b60405180910390f35b3480156106a557600080fd5b506106c060048036038101906106bb9190612f01565b6114c1565b6040516106cd91906134aa565b60405180910390f35b3480156106e257600080fd5b506106eb61156b565b6040516106f8919061370c565b60405180910390f35b34801561070d57600080fd5b5061072860048036038101906107239190612ec0565b611571565b005b34801561073657600080fd5b50610751600480360381019061074c9190612cc7565b611607565b60405161075e919061348f565b60405180910390f35b34801561077357600080fd5b5061078e60048036038101906107899190612c9e565b61169b565b005b60007f780e9d63000000000000000000000000000000000000000000000000000000007bffffffffffffffffffffffffffffffffffffffffffffffffffffffff1916827bffffffffffffffffffffffffffffffffffffffffffffffffffffffff19161480610803575061080282611793565b5b9050919050565b610812611875565b73ffffffffffffffffffffffffffffffffffffffff16610830611244565b73ffffffffffffffffffffffffffffffffffffffff1614610886576040517f08c379a000000000000000000000000000000000000000000000000000000000815260040161087d9061366c565b60405180910390fd5b80601060006101000a81548160ff02191690831515021790555050565b6060600080546108b2906139bb565b80601f01602080910402602001604051908101604052809291908181526020018280546108de906139bb565b801561092b5780601f106109005761010080835404028352916020019161092b565b820191906000526020600020905b81548152906001019060200180831161090e57829003601f168201915b5050505050905090565b60006109408261187d565b61097f576040517f08c379a00000000000000000000000000000000000000000000000000000000081526004016109769061364c565b60405180910390fd5b6004600083815260200190815260200160002060009054906101000a900473ffffffffffffffffffffffffffffffffffffffff169050919050565b6109c2611875565b73ffffffffffffffffffffffffffffffffffffffff166109e0611244565b73ffffffffffffffffffffffffffffffffffffffff1614610a36576040517f08c379a0000000000000000000000000000000000000000000000000000000008152600401610a2d9061366c565b60405180910390fd5b80600f8190555050565b6000610a4b82611052565b90508073ffffffffffffffffffffffffffffffffffffffff168373ffffffffffffffffffffffffffffffffffffffff161415610abc576040517f08c379a0000000000000000000000000000000000000000000000000000000008152600401610ab3906136ac565b60405180910390fd5b8073ffffffffffffffffffffffffffffffffffffffff16610adb611875565b73ffffffffffffffffffffffffffffffffffffffff161480610b0a5750610b0981610b04611875565b611607565b5b610b49576040517f08c379a0000000000000000000000000000000000000000000000000000000008152600401610b40906135cc565b60405180910390fd5b610b5383836118e9565b505050565b600d5481565b6000600880549050905090565b600f5481565b610b82610b7c611875565b826119a2565b610bc1576040517f08c379a0000000000000000000000000000000000000000000000000000000008152600401610bb8906136cc565b60405180910390fd5b610bcc838383611a80565b505050565b6000610bdc83611104565b8210610c1d576040517f08c379a0000000000000000000000000000000000000000000000000000000008152600401610c14906134cc565b60405180910390fd5b600660008473ffffffffffffffffffffffffffffffffffffffff1673ffffffffffffffffffffffffffffffffffffffff168152602001908152602001600020600083815260200190815260200160002054905092915050565b610c7e611875565b73ffffffffffffffffffffffffffffffffffffffff16610c9c611244565b73ffffffffffffffffffffffffffffffffffffffff1614610cf2576040517f08c379a0000000000000000000000000000000000000000000000000000000008152600401610ce99061366c565b60405180910390fd5b6000610cfc611244565b73ffffffffffffffffffffffffffffffffffffffff1647604051610d1f906133c8565b60006040518083038185875af1925050503d8060008114610d5c576040519150601f19603f3d011682016040523d82523d6000602084013e610d61565b606091505b5050905080610d6f57600080fd5b50565b610d8d838383604051806020016040528060008152506113d1565b505050565b60606000610d9f83611104565b905060008167ffffffffffffffff811115610de3577f4e487b7100000000000000000000000000000000000000000000000000000000600052604160045260246000fd5b604051908082528060200260200182016040528015610e115781602001602082028036833780820191505090505b50905060005b82811015610e8157610e298582610bd1565b828281518110610e62577f4e487b7100000000000000000000000000000000000000000000000000000000600052603260045260246000fd5b6020026020010181815250508080610e7990613a1e565b915050610e17565b508092505050919050565b610e94611875565b73ffffffffffffffffffffffffffffffffffffffff16610eb2611244565b73ffffffffffffffffffffffffffffffffffffffff1614610f08576040517f08c379a0000000000000000000000000000000000000000000000000000000008152600401610eff9061366c565b60405180910390fd5b80600d8190555050565b6000610f1c610b5e565b8210610f5d576040517f08c379a0000000000000000000000000000000000000000000000000000000008152600401610f54906136ec565b60405180910390fd5b60088281548110610f97577f4e487b7100000000000000000000000000000000000000000000000000000000600052603260045260246000fd5b90600052602060002001549050919050565b610fb1611875565b73ffffffffffffffffffffffffffffffffffffffff16610fcf611244565b73ffffffffffffffffffffffffffffffffffffffff1614611025576040517f08c379a000000000000000000000000000000000000000000000000000000000815260040161101c9061366c565b60405180910390fd5b80600b908051906020019061103b929190612ac2565b5050565b601060009054906101000a900460ff1681565b6000806002600084815260200190815260200160002060009054906101000a900473ffffffffffffffffffffffffffffffffffffffff169050600073ffffffffffffffffffffffffffffffffffffffff168173ffffffffffffffffffffffffffffffffffffffff1614156110fb576040517f08c379a00000000000000000000000000000000000000000000000000000000081526004016110f29061360c565b60405180910390fd5b80915050919050565b60008073ffffffffffffffffffffffffffffffffffffffff168273ffffffffffffffffffffffffffffffffffffffff161415611175576040517f08c379a000000000000000000000000000000000000000000000000000000000815260040161116c906135ec565b60405180910390fd5b600360008373ffffffffffffffffffffffffffffffffffffffff1673ffffffffffffffffffffffffffffffffffffffff168152602001908152602001600020549050919050565b6111c4611875565b73ffffffffffffffffffffffffffffffffffffffff166111e2611244565b73ffffffffffffffffffffffffffffffffffffffff1614611238576040517f08c379a000000000000000000000000000000000000000000000000000000000815260040161122f9061366c565b60405180910390fd5b6112426000611ce7565b565b6000600a60009054906101000a900473ffffffffffffffffffffffffffffffffffffffff16905090565b60606001805461127d906139bb565b80601f01602080910402602001604051908101604052809291908181526020018280546112a9906139bb565b80156112f65780601f106112cb576101008083540402835291602001916112f6565b820191906000526020600020905b8154815290600101906020018083116112d957829003601f168201915b5050505050905090565b600061130a610b5e565b9050601060009054906101000a900460ff161561132657600080fd5b6001821461133357600080fd5b600f5482111561134257600080fd5b600e548282611351919061384a565b111561135c57600080fd5b6113723360018361136d919061384a565b611dad565b7f1c05098ed1ff38e6238d2b1b04b2c7977d4c94ce651bda6473f9dba8dbf01da0336001836113a1919061384a565b6040516113af929190613444565b60405180910390a15050565b6113cd6113c6611875565b8383611dcb565b5050565b6113e26113dc611875565b836119a2565b611421576040517f08c379a0000000000000000000000000000000000000000000000000000000008152600401611418906136cc565b60405180910390fd5b61142d84848484611f38565b50505050565b600c8054611440906139bb565b80601f016020809104026020016040519081016040528092919081815260200182805461146c906139bb565b80156114b95780601f1061148e576101008083540402835291602001916114b9565b820191906000526020600020905b81548152906001019060200180831161149c57829003601f168201915b505050505081565b60606114cc8261187d565b61150b576040517f08c379a00000000000000000000000000000000000000000000000000000000081526004016115029061368c565b60405180910390fd5b6000611515611f94565b905060008151116115355760405180602001604052806000815250611563565b8061153f84612026565b600c60405160200161155393929190613397565b6040516020818303038152906040525b915050919050565b600e5481565b611579611875565b73ffffffffffffffffffffffffffffffffffffffff16611597611244565b73ffffffffffffffffffffffffffffffffffffffff16146115ed576040517f08c379a00000000000000000000000000000000000000000000000000000000081526004016115e49061366c565b60405180910390fd5b80600c9080519060200190611603929190612ac2565b5050565b6000600560008473ffffffffffffffffffffffffffffffffffffffff1673ffffffffffffffffffffffffffffffffffffffff16815260200190815260200160002060008373ffffffffffffffffffffffffffffffffffffffff1673ffffffffffffffffffffffffffffffffffffffff16815260200190815260200160002060009054906101000a900460ff16905092915050565b6116a3611875565b73ffffffffffffffffffffffffffffffffffffffff166116c1611244565b73ffffffffffffffffffffffffffffffffffffffff1614611717576040517f08c379a000000000000000000000000000000000000000000000000000000000815260040161170e9061366c565b60405180910390fd5b600073ffffffffffffffffffffffffffffffffffffffff168173ffffffffffffffffffffffffffffffffffffffff161415611787576040517f08c379a000000000000000000000000000000000000000000000000000000000815260040161177e9061350c565b60405180910390fd5b61179081611ce7565b50565b60007f80ac58cd000000000000000000000000000000000000000000000000000000007bffffffffffffffffffffffffffffffffffffffffffffffffffffffff1916827bffffffffffffffffffffffffffffffffffffffffffffffffffffffff1916148061185e57507f5b5e139f000000000000000000000000000000000000000000000000000000007bffffffffffffffffffffffffffffffffffffffffffffffffffffffff1916827bffffffffffffffffffffffffffffffffffffffffffffffffffffffff1916145b8061186e575061186d826121d3565b5b9050919050565b600033905090565b60008073ffffffffffffffffffffffffffffffffffffffff166002600084815260200190815260200160002060009054906101000a900473ffffffffffffffffffffffffffffffffffffffff1673ffffffffffffffffffffffffffffffffffffffff1614159050919050565b816004600083815260200190815260200160002060006101000a81548173ffffffffffffffffffffffffffffffffffffffff021916908373ffffffffffffffffffffffffffffffffffffffff160217905550808273ffffffffffffffffffffffffffffffffffffffff1661195c83611052565b73ffffffffffffffffffffffffffffffffffffffff167f8c5be1e5ebec7d5bd14f71427d1e84f3dd0314c0f7b2291e5b200ac8c7c3b92560405160405180910390a45050565b60006119ad8261187d565b6119ec576040517f08c379a00000000000000000000000000000000000000000000000000000000081526004016119e3906135ac565b60405180910390fd5b60006119f783611052565b90508073ffffffffffffffffffffffffffffffffffffffff168473ffffffffffffffffffffffffffffffffffffffff161480611a395750611a388185611607565b5b80611a7757508373ffffffffffffffffffffffffffffffffffffffff16611a5f84610935565b73ffffffffffffffffffffffffffffffffffffffff16145b91505092915050565b8273ffffffffffffffffffffffffffffffffffffffff16611aa082611052565b73ffffffffffffffffffffffffffffffffffffffff1614611af6576040517f08c379a0000000000000000000000000000000000000000000000000000000008152600401611aed9061352c565b60405180910390fd5b600073ffffffffffffffffffffffffffffffffffffffff168273ffffffffffffffffffffffffffffffffffffffff161415611b66576040517f08c379a0000000000000000000000000000000000000000000000000000000008152600401611b5d9061356c565b60405180910390fd5b611b7183838361223d565b611b7c6000826118e9565b6001600360008573ffffffffffffffffffffffffffffffffffffffff1673ffffffffffffffffffffffffffffffffffffffff1681526020019081526020016000206000828254611bcc91906138d1565b925050819055506001600360008473ffffffffffffffffffffffffffffffffffffffff1673ffffffffffffffffffffffffffffffffffffffff1681526020019081526020016000206000828254611c23919061384a565b92505081905550816002600083815260200190815260200160002060006101000a81548173ffffffffffffffffffffffffffffffffffffffff021916908373ffffffffffffffffffffffffffffffffffffffff160217905550808273ffffffffffffffffffffffffffffffffffffffff168473ffffffffffffffffffffffffffffffffffffffff167fddf252ad1be2c89b69c2b068fc378daa952ba7f163c4a11628f55a4df523b3ef60405160405180910390a4611ce2838383612351565b505050565b6000600a60009054906101000a900473ffffffffffffffffffffffffffffffffffffffff16905081600a60006101000a81548173ffffffffffffffffffffffffffffffffffffffff021916908373ffffffffffffffffffffffffffffffffffffffff1602179055508173ffffffffffffffffffffffffffffffffffffffff168173ffffffffffffffffffffffffffffffffffffffff167f8be0079c531659141344cd1fd0a4f28419497f9722a3daafe3b4186f6b6457e060405160405180910390a35050565b611dc7828260405180602001604052806000815250612356565b5050565b8173ffffffffffffffffffffffffffffffffffffffff168373ffffffffffffffffffffffffffffffffffffffff161415611e3a576040517f08c379a0000000000000000000000000000000000000000000000000000000008152600401611e319061358c565b60405180910390fd5b80600560008573ffffffffffffffffffffffffffffffffffffffff1673ffffffffffffffffffffffffffffffffffffffff16815260200190815260200160002060008473ffffffffffffffffffffffffffffffffffffffff1673ffffffffffffffffffffffffffffffffffffffff16815260200190815260200160002060006101000a81548160ff0219169083151502179055508173ffffffffffffffffffffffffffffffffffffffff168373ffffffffffffffffffffffffffffffffffffffff167f17307eab39ab6107e8899845ad3d59bd9653f200f220920489ca2b5937696c3183604051611f2b919061348f565b60405180910390a3505050565b611f43848484611a80565b611f4f848484846123b1565b611f8e576040517f08c379a0000000000000000000000000000000000000000000000000000000008152600401611f85906134ec565b60405180910390fd5b50505050565b6060600b8054611fa3906139bb565b80601f0160208091040260200160405190810160405280929190818152602001828054611fcf906139bb565b801561201c5780601f10611ff15761010080835404028352916020019161201c565b820191906000526020600020905b815481529060010190602001808311611fff57829003601f168201915b5050505050905090565b6060600082141561206e576040518060400160405280600181526020017f300000000000000000000000000000000000000000000000000000000000000081525090506121ce565b600082905060005b600082146120a057808061208990613a1e565b915050600a8261209991906138a0565b9150612076565b60008167ffffffffffffffff8111156120e2577f4e487b7100000000000000000000000000000000000000000000000000000000600052604160045260246000fd5b6040519080825280601f01601f1916602001820160405280156121145781602001600182028036833780820191505090505b5090505b600085146121c75760018261212d91906138d1565b9150600a8561213c9190613a67565b6030612148919061384a565b60f81b818381518110612184577f4e487b7100000000000000000000000000000000000000000000000000000000600052603260045260246000fd5b60200101907effffffffffffffffffffffffffffffffffffffffffffffffffffffffffffff1916908160001a905350600a856121c091906138a0565b9450612118565b8093505050505b919050565b60007f01ffc9a7000000000000000000000000000000000000000000000000000000007bffffffffffffffffffffffffffffffffffffffffffffffffffffffff1916827bffffffffffffffffffffffffffffffffffffffffffffffffffffffff1916149050919050565b612248838383612548565b600073ffffffffffffffffffffffffffffffffffffffff168373ffffffffffffffffffffffffffffffffffffffff16141561228b576122868161254d565b6122ca565b8173ffffffffffffffffffffffffffffffffffffffff168373ffffffffffffffffffffffffffffffffffffffff16146122c9576122c88382612596565b5b5b600073ffffffffffffffffffffffffffffffffffffffff168273ffffffffffffffffffffffffffffffffffffffff16141561230d5761230881612703565b61234c565b8273ffffffffffffffffffffffffffffffffffffffff168273ffffffffffffffffffffffffffffffffffffffff161461234b5761234a8282612846565b5b5b505050565b505050565b61236083836128c5565b61236d60008484846123b1565b6123ac576040517f08c379a00000000000000000000000000000000000000000000000000000000081526004016123a3906134ec565b60405180910390fd5b505050565b60006123d28473ffffffffffffffffffffffffffffffffffffffff16612a9f565b1561253b578373ffffffffffffffffffffffffffffffffffffffff1663150b7a026123fb611875565b8786866040518563ffffffff1660e01b815260040161241d94939291906133f8565b602060405180830381600087803b15801561243757600080fd5b505af192505050801561246857506040513d601f19601f820116820180604052508101906124659190612e97565b60015b6124eb573d8060008114612498576040519150601f19603f3d011682016040523d82523d6000602084013e61249d565b606091505b506000815114156124e3576040517f08c379a00000000000000000000000000000000000000000000000000000000081526004016124da906134ec565b60405180910390fd5b805181602001fd5b63150b7a0260e01b7bffffffffffffffffffffffffffffffffffffffffffffffffffffffff1916817bffffffffffffffffffffffffffffffffffffffffffffffffffffffff191614915050612540565b600190505b949350505050565b505050565b6008805490506009600083815260200190815260200160002081905550600881908060018154018082558091505060019003906000526020600020016000909190919091505550565b600060016125a384611104565b6125ad91906138d1565b9050600060076000848152602001908152602001600020549050818114612692576000600660008673ffffffffffffffffffffffffffffffffffffffff1673ffffffffffffffffffffffffffffffffffffffff168152602001908152602001600020600084815260200190815260200160002054905080600660008773ffffffffffffffffffffffffffffffffffffffff1673ffffffffffffffffffffffffffffffffffffffff168152602001908152602001600020600084815260200190815260200160002081905550816007600083815260200190815260200160002081905550505b6007600084815260200190815260200160002060009055600660008573ffffffffffffffffffffffffffffffffffffffff1673ffffffffffffffffffffffffffffffffffffffff16815260200190815260200160002060008381526020019081526020016000206000905550505050565b6000600160088054905061271791906138d1565b905060006009600084815260200190815260200160002054905060006008838154811061276d577f4e487b7100000000000000000000000000000000000000000000000000000000600052603260045260246000fd5b9060005260206000200154905080600883815481106127b5577f4e487b7100000000000000000000000000000000000000000000000000000000600052603260045260246000fd5b90600052602060002001819055508160096000838152602001908152602001600020819055506009600085815260200190815260200160002060009055600880548061282a577f4e487b7100000000000000000000000000000000000000000000000000000000600052603160045260246000fd5b6001900381819060005260206000200160009055905550505050565b600061285183611104565b905081600660008573ffffffffffffffffffffffffffffffffffffffff1673ffffffffffffffffffffffffffffffffffffffff168152602001908152602001600020600083815260200190815260200160002081905550806007600084815260200190815260200160002081905550505050565b600073ffffffffffffffffffffffffffffffffffffffff168273ffffffffffffffffffffffffffffffffffffffff161415612935576040517f08c379a000000000000000000000000000000000000000000000000000000000815260040161292c9061362c565b60405180910390fd5b61293e8161187d565b1561297e576040517f08c379a00000000000000000000000000000000000000000000000000000000081526004016129759061354c565b60405180910390fd5b61298a6000838361223d565b6001600360008473ffffffffffffffffffffffffffffffffffffffff1673ffffffffffffffffffffffffffffffffffffffff16815260200190815260200160002060008282546129da919061384a565b92505081905550816002600083815260200190815260200160002060006101000a81548173ffffffffffffffffffffffffffffffffffffffff021916908373ffffffffffffffffffffffffffffffffffffffff160217905550808273ffffffffffffffffffffffffffffffffffffffff16600073ffffffffffffffffffffffffffffffffffffffff167fddf252ad1be2c89b69c2b068fc378daa952ba7f163c4a11628f55a4df523b3ef60405160405180910390a4612a9b60008383612351565b5050565b6000808273ffffffffffffffffffffffffffffffffffffffff163b119050919050565b828054612ace906139bb565b90600052602060002090601f016020900481019282612af05760008555612b37565b82601f10612b0957805160ff1916838001178555612b37565b82800160010185558215612b37579182015b82811115612b36578251825591602001919060010190612b1b565b5b509050612b449190612b48565b5090565b5b80821115612b61576000816000905550600101612b49565b5090565b6000612b78612b738461374c565b613727565b905082815260208101848484011115612b9057600080fd5b612b9b848285613979565b509392505050565b6000612bb6612bb18461377d565b613727565b905082815260208101848484011115612bce57600080fd5b612bd9848285613979565b509392505050565b600081359050612bf08161405e565b92915050565b600081359050612c0581614075565b92915050565b600081359050612c1a8161408c565b92915050565b600081519050612c2f8161408c565b92915050565b600082601f830112612c4657600080fd5b8135612c56848260208601612b65565b91505092915050565b600082601f830112612c7057600080fd5b8135612c80848260208601612ba3565b91505092915050565b600081359050612c98816140a3565b92915050565b600060208284031215612cb057600080fd5b6000612cbe84828501612be1565b91505092915050565b60008060408385031215612cda57600080fd5b6000612ce885828601612be1565b9250506020612cf985828601612be1565b9150509250929050565b600080600060608486031215612d1857600080fd5b6000612d2686828701612be1565b9350506020612d3786828701612be1565b9250506040612d4886828701612c89565b9150509250925092565b60008060008060808587031215612d6857600080fd5b6000612d7687828801612be1565b9450506020612d8787828801612be1565b9350506040612d9887828801612c89565b925050606085013567ffffffffffffffff811115612db557600080fd5b612dc187828801612c35565b91505092959194509250565b60008060408385031215612de057600080fd5b6000612dee85828601612be1565b9250506020612dff85828601612bf6565b9150509250929050565b60008060408385031215612e1c57600080fd5b6000612e2a85828601612be1565b9250506020612e3b85828601612c89565b9150509250929050565b600060208284031215612e5757600080fd5b6000612e6584828501612bf6565b91505092915050565b600060208284031215612e8057600080fd5b6000612e8e84828501612c0b565b91505092915050565b600060208284031215612ea957600080fd5b6000612eb784828501612c20565b91505092915050565b600060208284031215612ed257600080fd5b600082013567ffffffffffffffff811115612eec57600080fd5b612ef884828501612c5f565b91505092915050565b600060208284031215612f1357600080fd5b6000612f2184828501612c89565b91505092915050565b6000612f368383613379565b60208301905092915050565b612f4b81613905565b82525050565b6000612f5c826137d3565b612f668185613801565b9350612f71836137ae565b8060005b83811015612fa2578151612f898882612f2a565b9750612f94836137f4565b925050600181019050612f75565b5085935050505092915050565b612fb881613917565b82525050565b6000612fc9826137de565b612fd38185613812565b9350612fe3818560208601613988565b612fec81613b54565b840191505092915050565b6000613002826137e9565b61300c818561382e565b935061301c818560208601613988565b61302581613b54565b840191505092915050565b600061303b826137e9565b613045818561383f565b9350613055818560208601613988565b80840191505092915050565b6000815461306e816139bb565b613078818661383f565b9450600182166000811461309357600181146130a4576130d7565b60ff198316865281860193506130d7565b6130ad856137be565b60005b838110156130cf578154818901526001820191506020810190506130b0565b838801955050505b50505092915050565b60006130ed602b8361382e565b91506130f882613b65565b604082019050919050565b600061311060328361382e565b915061311b82613bb4565b604082019050919050565b600061313360268361382e565b915061313e82613c03565b604082019050919050565b600061315660258361382e565b915061316182613c52565b604082019050919050565b6000613179601c8361382e565b915061318482613ca1565b602082019050919050565b600061319c60248361382e565b91506131a782613cca565b604082019050919050565b60006131bf60198361382e565b91506131ca82613d19565b602082019050919050565b60006131e2602c8361382e565b91506131ed82613d42565b604082019050919050565b600061320560388361382e565b915061321082613d91565b604082019050919050565b6000613228602a8361382e565b915061323382613de0565b604082019050919050565b600061324b60298361382e565b915061325682613e2f565b604082019050919050565b600061326e60208361382e565b915061327982613e7e565b602082019050919050565b6000613291602c8361382e565b915061329c82613ea7565b604082019050919050565b60006132b460208361382e565b91506132bf82613ef6565b602082019050919050565b60006132d7602f8361382e565b91506132e282613f1f565b604082019050919050565b60006132fa60218361382e565b915061330582613f6e565b604082019050919050565b600061331d600083613823565b915061332882613fbd565b600082019050919050565b600061334060318361382e565b915061334b82613fc0565b604082019050919050565b6000613363602c8361382e565b915061336e8261400f565b604082019050919050565b6133828161396f565b82525050565b6133918161396f565b82525050565b60006133a38286613030565b91506133af8285613030565b91506133bb8284613061565b9150819050949350505050565b60006133d382613310565b9150819050919050565b60006020820190506133f26000830184612f42565b92915050565b600060808201905061340d6000830187612f42565b61341a6020830186612f42565b6134276040830185613388565b81810360608301526134398184612fbe565b905095945050505050565b60006040820190506134596000830185612f42565b6134666020830184613388565b9392505050565b600060208201905081810360008301526134878184612f51565b905092915050565b60006020820190506134a46000830184612faf565b92915050565b600060208201905081810360008301526134c48184612ff7565b905092915050565b600060208201905081810360008301526134e5816130e0565b9050919050565b6000602082019050818103600083015261350581613103565b9050919050565b6000602082019050818103600083015261352581613126565b9050919050565b6000602082019050818103600083015261354581613149565b9050919050565b600060208201905081810360008301526135658161316c565b9050919050565b600060208201905081810360008301526135858161318f565b9050919050565b600060208201905081810360008301526135a5816131b2565b9050919050565b600060208201905081810360008301526135c5816131d5565b9050919050565b600060208201905081810360008301526135e5816131f8565b9050919050565b600060208201905081810360008301526136058161321b565b9050919050565b600060208201905081810360008301526136258161323e565b9050919050565b6000602082019050818103600083015261364581613261565b9050919050565b6000602082019050818103600083015261366581613284565b9050919050565b60006020820190508181036000830152613685816132a7565b9050919050565b600060208201905081810360008301526136a5816132ca565b9050919050565b600060208201905081810360008301526136c5816132ed565b9050919050565b600060208201905081810360008301526136e581613333565b9050919050565b6000602082019050818103600083015261370581613356565b9050919050565b60006020820190506137216000830184613388565b92915050565b6000613731613742565b905061373d82826139ed565b919050565b6000604051905090565b600067ffffffffffffffff82111561376757613766613b25565b5b61377082613b54565b9050602081019050919050565b600067ffffffffffffffff82111561379857613797613b25565b5b6137a182613b54565b9050602081019050919050565b6000819050602082019050919050565b60008190508160005260206000209050919050565b600081519050919050565b600081519050919050565b600081519050919050565b6000602082019050919050565b600082825260208201905092915050565b600082825260208201905092915050565b600081905092915050565b600082825260208201905092915050565b600081905092915050565b60006138558261396f565b91506138608361396f565b9250827fffffffffffffffffffffffffffffffffffffffffffffffffffffffffffffffff0382111561389557613894613a98565b5b828201905092915050565b60006138ab8261396f565b91506138b68361396f565b9250826138c6576138c5613ac7565b5b828204905092915050565b60006138dc8261396f565b91506138e78361396f565b9250828210156138fa576138f9613a98565b5b828203905092915050565b60006139108261394f565b9050919050565b60008115159050919050565b60007fffffffff0000000000000000000000000000000000000000000000000000000082169050919050565b600073ffffffffffffffffffffffffffffffffffffffff82169050919050565b6000819050919050565b82818337600083830152505050565b60005b838110156139a657808201518184015260208101905061398b565b838111156139b5576000848401525b50505050565b600060028204905060018216806139d357607f821691505b602082108114156139e7576139e6613af6565b5b50919050565b6139f682613b54565b810181811067ffffffffffffffff82111715613a1557613a14613b25565b5b80604052505050565b6000613a298261396f565b91507fffffffffffffffffffffffffffffffffffffffffffffffffffffffffffffffff821415613a5c57613a5b613a98565b5b600182019050919050565b6000613a728261396f565b9150613a7d8361396f565b925082613a8d57613a8c613ac7565b5b828206905092915050565b7f4e487b7100000000000000000000000000000000000000000000000000000000600052601160045260246000fd5b7f4e487b7100000000000000000000000000000000000000000000000000000000600052601260045260246000fd5b7f4e487b7100000000000000000000000000000000000000000000000000000000600052602260045260246000fd5b7f4e487b7100000000000000000000000000000000000000000000000000000000600052604160045260246000fd5b6000601f19601f8301169050919050565b7f455243373231456e756d657261626c653a206f776e657220696e646578206f7560008201527f74206f6620626f756e6473000000000000000000000000000000000000000000602082015250565b7f4552433732313a207472616e7366657220746f206e6f6e20455243373231526560008201527f63656976657220696d706c656d656e7465720000000000000000000000000000602082015250565b7f4f776e61626c653a206e6577206f776e657220697320746865207a65726f206160008201527f6464726573730000000000000000000000000000000000000000000000000000602082015250565b7f4552433732313a207472616e736665722066726f6d20696e636f72726563742060008201527f6f776e6572000000000000000000000000000000000000000000000000000000602082015250565b7f4552433732313a20746f6b656e20616c7265616479206d696e74656400000000600082015250565b7f4552433732313a207472616e7366657220746f20746865207a65726f2061646460008201527f7265737300000000000000000000000000000000000000000000000000000000602082015250565b7f4552433732313a20617070726f766520746f2063616c6c657200000000000000600082015250565b7f4552433732313a206f70657261746f7220717565727920666f72206e6f6e657860008201527f697374656e7420746f6b656e0000000000000000000000000000000000000000602082015250565b7f4552433732313a20617070726f76652063616c6c6572206973206e6f74206f7760008201527f6e6572206e6f7220617070726f76656420666f7220616c6c0000000000000000602082015250565b7f4552433732313a2062616c616e636520717565727920666f7220746865207a6560008201527f726f206164647265737300000000000000000000000000000000000000000000602082015250565b7f4552433732313a206f776e657220717565727920666f72206e6f6e657869737460008201527f656e7420746f6b656e0000000000000000000000000000000000000000000000602082015250565b7f4552433732313a206d696e7420746f20746865207a65726f2061646472657373600082015250565b7f4552433732313a20617070726f76656420717565727920666f72206e6f6e657860008201527f697374656e7420746f6b656e0000000000000000000000000000000000000000602082015250565b7f4f776e61626c653a2063616c6c6572206973206e6f7420746865206f776e6572600082015250565b7f4552433732314d657461646174613a2055524920717565727920666f72206e6f60008201527f6e6578697374656e7420746f6b656e0000000000000000000000000000000000602082015250565b7f4552433732313a20617070726f76616c20746f2063757272656e74206f776e6560008201527f7200000000000000000000000000000000000000000000000000000000000000602082015250565b50565b7f4552433732313a207472616e736665722063616c6c6572206973206e6f74206f60008201527f776e6572206e6f7220617070726f766564000000000000000000000000000000602082015250565b7f455243373231456e756d657261626c653a20676c6f62616c20696e646578206f60008201527f7574206f6620626f756e64730000000000000000000000000000000000000000602082015250565b61406781613905565b811461407257600080fd5b50565b61407e81613917565b811461408957600080fd5b50565b61409581613923565b81146140a057600080fd5b50565b6140ac8161396f565b81146140b757600080fd5b5056fea264697066735822122058b4677f9e6a02375c93da359be947047662f08f0e511c35c81c532a593767a064736f6c63430008010033",
  "linkReferences": {},
  "deployedLinkReferences": {}
}